8=FIX.4.2|9=64|35=A|34=1|49=ccc|52=,|56=server|98=0|108=30|10=180|
8=FIX.4.2|9=64|35=A|34=1|49=ccc|52=,|56=server|98=0|108=30|10=181|